:100000000C9462000C94C5040C949E040C948A0019
:100010000C948A000C948A000C948A000C948A0038
:100020000C948A000C948A000C948A000C948A0028
:100030000C948A000C948A000C948A000C948A0018
:100040000C9454040C948A000C948A000C948A003A
:100050000C948A000C948A000C948A000C948A00F8
:100060000C948A000C948A000000000024002700F1
:100070002A0000000000250028002B0000000000DE
:1000800023002600290004040404040404040202DA
:100090000202020203030303030301020408102007
:1000A0004080010204081020010204081020000012
:1000B0000008000201000003040700000000000027
:1000C0000000770711241FBECFEFD8E0DEBFCDBF01
:1000D00011E0A0E0B1E0EAE9FFE002C005900D9276
:1000E000A630B107D9F721E0A6E0B1E001C01D922A
:1000F000A53AB207E1F710E0C2E6D0E004C02197CC
:10010000FE010E94C507C136D107C9F70E94EC0461
:100110000C94CB070C940000A3E1B1E0ED91FC91AD
:10012000119783E0EE0FFF1F8A95E1F712968D91EC
:100130009C911397E80FF91FEE0FFF1FEB5DFE4F29
:100140001182108284E090E011969C938E93139616
:100150009C938E93129781E090E090936E01809330
:100160006D0115969C938E9314970895833081F0BA
:1001700028F4813099F08230A9F008958730A9F0F1
:100180008830C9F08430B1F4809180008F7D03C045
:10019000809180008F7780938000089584B58F7759
:1001A00084BD089584B58F7DFBCF8091B0008F779B
:1001B0008093B00008958091B0008F7DF9CFCF93E8
:1001C000DF93282F30E0F901E255FF4F8491F901C8
:1001D000E656FF4FD491F901EA57FF4FC491CC2363
:1001E000A1F081110E94B600EC2FF0E0EE0FFF1F8E
:1001F000E458FF4FA591B491EC91ED2381E090E09C
:1002000009F480E0DF91CF91089580E090E0FACF8B
:100210001F93CF93DF93282F30E0F901E255FF4F72
:100220008491F901E656FF4FD491F901EA57FF4F47
:10023000C491CC23A9F0162F81110E94B600EC2F97
:10024000F0E0EE0FFF1FEE58FF4FA591B4918FB76E
:10025000F894EC91111108C0D095DE23DC938FBF88
:10026000DF91CF911F910895DE2BF8CFCF93DF93CD
:1002700090E0FC01E656FF4F24918A579F4FFC0106
:1002800084918823D1F090E0880F991FFC01E859F0
:10029000FF4FA591B491FC01EE58FF4FC591D49149
:1002A000623071F49FB7F8943C91822F809583233C
:1002B0008C93E8812E2B28839FBFDF91CF910895E7
:1002C0008FB7F894EC912E2B2C938FBFF6CF3FB7BE
:1002D000F89480910F0190911001A0911101B091BB
:1002E000120126B5A89B05C02F3F19F00196A11D4C
:1002F000B11D3FBFBA2FA92F982F8827BC01CD0170
:10030000620F711D811D911D42E0660F771F881FCE
:10031000991F4A95D1F708950895209121013091B0
:1003200022012530310524F580911F019091200193
:1003300043E0880F991F4A95E1F7FC01E20FF31F94
:10034000EE0FFF1FEB5DFE4F11821082F901339615
:10035000E80FF91FEE0FFF1FEB5DFE4F81E090E00D
:10036000918380832F5F3F4F30932201209321019F
:100370000895E0912101F09122011E161F0614F547
:1003800080911F019091200123E0880F991F2A95E9
:10039000E1F7DF011296A80FB91FAA0FBB1FAB5DD3
:1003A000BE4F1D921C923197F0932201E0932101E0
:1003B000E80FF91FEE0FFF1FEB5DFE4F81E090E0AD
:1003C000918380830895FC01808191810280F38173
:1003D000E02D23E0880F991F2A95E1F7DC01AE0F8D
:1003E000BF1FAA0FBB1FAB5DBE4F21E030E02D93B6
:1003F0003C93DF011196A80FB91FAA0FBB1FAB5D7D
:10040000BE4F2D933C933296E80FF91FEE0FFF1F5E
:10041000EB5DFE4F3183208308958091150190910B
:10042000160118161906B4F5E0911301F0911401A4
:1004300023E0EE0FFF1F2A95E1F7E80FF91FEE0FFB
:10044000FF1FEB5DFE4F118210828FE191E00E9451
:10045000E30189E191E00E94E3018091150190910F
:10046000160101979093160180931501E0911301F5
:10047000F091140143E0EE0FFF1F4A95E1F7E80FFA
:10048000F91FEE0FFF1FEB5DFE4F81E090E09183BF
:100490008083089580E00895809115019091160160
:1004A00087309105B4F5E0911301F091140123E038
:1004B000EE0FFF1F2A95E1F7E80FF91FEE0FFF1F60
:1004C000EB5DFE4F118210828FE191E00E94E3010B
:1004D00089E191E00E94E30180911501909116015C
:1004E00001969093160180931501E0911301F0910C
:1004F000140143E0EE0FFF1F4A95E1F7E80FF91FE3
:10050000EE0FFF1FEB5DFE4F81E090E09183808353
:10051000089580E00895CF93E0911301F0911401C4
:10052000E130F105E9F44091150150911601209157
:100530001B0130911C01B901615071094617570721
:10054000C4F02F5F3F4F241735079CF082E090E006
:1005500090931801809317010E94F902C0E006C031
:100560001E161F0634F00E948C00C1E08C2FCF9124
:10057000089583E0EE0FFF1F8A95E1F78091150142
:1005800090911601E80FF91FEE0FFF1FEB5DFE4F74
:100590001182108289E191E00E94E30180911301B0
:1005A0009091140101979093140180931301FC0121
:1005B00023E0EE0FFF1F2A95E1F78091150190913E
:1005C0001601E80FF91FEE0FFF1FEB5DFE4F81E0F4
:1005D00090E0918380830E944C02C82F8111BECF8E
:1005E00084E090E090931801809317010E940D021F
:1005F000BDCF0F931F93CF93E0911301F09114019E
:10060000E630F105E9F44091150150911601209171
:10061000210130912201B901615071094617570734
:10062000D4F02F5F3F4F24173507ACF083E090E004
:1006300090931801809317010E948B02C0E006C0BE
:10064000E730F10544F00E948C00C1E08C2FCF917F
:100650001F910F91089583E0EE0FFF1F8A95E1F738
:100660008091150190911601E80FF91FEE0FFF1F01
:10067000EB5DFE4F118210828FE191E00E94E30159
:10068000809113019091140101969093140180932D
:100690001301FC0123E0EE0FFF1F2A95E1F7809183
:1006A000150190911601E80FF91FEE0FFF1FEB5D8A
:1006B000FE4F01E010E0118300830E944C02C82F1E
:1006C0008111BCCF10931801009317010E940D02F5
:1006D000BDCFCF93E0911301F0911401E130F1050A
:1006E000C1F420911B0130911C01409115015091E2
:1006F000160124173507B4F42D5F3F4F2417350733
:100700008CF0F0931801E09317010E94D203C0E02F
:1007100006C01E161F0634F00E948C00C1E08C2F0C
:10072000CF91089583E0EE0FFF1F8A95E1F7809146
:10073000150190911601E80FF91FEE0FFF1FEB5DF9
:10074000FE4F1182108289E191E00E94E3018091C5
:100750001301909114010197909314018093130158
:10076000FC0123E0EE0FFF1F2A95E1F780911501B0
:1007700090911601E80FF91FEE0FFF1FEB5DFE4F82
:1007800081E090E0918380830E940D02C82F811147
:10079000BECF83E090E090931801809317010E94F0
:1007A0004C02BDCFCF93E0911301F0911401E630DC
:1007B000F105D1F4209121013091220140911501E0
:1007C0005091160124173507C4F42D5F3F4F2417AD
:1007D00035079CF084E090E0909318018093170116
:1007E0000E946903C0E006C0E730F10534F00E94C2
:1007F0008C00C1E08C2FCF91089583E0EE0FFF1F96
:100800008A95E1F78091150190911601E80FF91F83
:10081000EE0FFF1FEB5DFE4F118210828FE191E022
:100820000E94E3018091130190911401019690932D
:10083000140180931301FC0123E0EE0FFF1F2A95A2
:10084000E1F78091150190911601E80FF91FEE0F65
:10085000FF1FEB5DFE4F81E090E0918380830E945B
:100860000D02C82F8111BECF82E090E09093180155
:10087000809317010E944C02BDCFFC0184819581B9
:10088000892B49F483E090E0938382831182108264
:10089000CF010C94E30183E090E09383828387E0AF
:1008A00090E091838083F4CF1F920F920FB60F9246
:1008B00011242F933F938F939F93AF93BF93809176
:1008C0000B0190910C01A0910D01B0910E0130919E
:1008D0000A0123E0230F2D3758F50196A11DB11D04
:1008E00020930A0180930B0190930C01A0930D01BA
:1008F000B0930E0180910F0190911001A091110110
:10090000B09112010196A11DB11D80930F0190932A
:100910001001A0931101B0931201BF91AF919F916B
:100920008F913F912F910F900FBE0F901F901895B0
:1009300026E8230F0296A11DB11DD2CF1F920F9260
:100940000FB60F9211242F933F934F935F936F93A2
:100950007F938F939F93AF93BF93EF93FF93E09118
:100960000201F09103010995FF91EF91BF91AF91C1
:100970009F918F917F916F915F914F913F912F91B7
:100980000F900FBE0F901F9018951F920F920FB6E9
:100990000F9211242F933F934F935F936F937F9305
:1009A0008F939F93AF93BF93EF93FF93E0910001D9
:1009B000F09101010995FF91EF91BF91AF919F9146
:1009C0008F917F916F915F914F913F912F910F90F8
:1009D0000FBE0F901F901895789484B5826084BDE7
:1009E00084B5816084BD85B5826085BD85B5816033
:1009F00085BD80916E00816080936E0010928100B1
:100A0000809181008260809381008091810081606B
:100A1000809381008091800081608093800080912C
:100A2000B10084608093B1008091B00081608093B8
:100A3000B00080917A00846080937A0080917A007F
:100A4000826080937A0080917A00816080937A003E
:100A500080917A00806880937A001092C10061E0F2
:100A60008CE00E94360161E08DE00E94360161E079
:100A70008EE00E94360161E08FE00E94360161E065
:100A800080E10E94360161E081E10E94360161E06F
:100A900082E10E94360161E083E10E94360161E05B
:100AA00084E00E94360161E085E00E94360161E049
:100AB00086E00E94360161E087E00E94360161E035
:100AC00088E00E94360161E089E00E94360161E021
:100AD0008AE00E94360161E08BE00E94360161E00D
:100AE0008CE00E94080161E08DE00E94080161E055
:100AF0008EE00E94080161E08FE00E94080161E041
:100B000080E10E94080161E081E10E94080161E04A
:100B100082E10E94080161E083E10E94080160E037
:100B200084E00E94080160E085E00E94080160E026
:100B300086E00E94080160E087E00E94080160E012
:100B400088E00E94080160E089E00E94080160E0FE
:100B50008AE00E94080160E08BE00E94080162E0E8
:100B600082E00E94360162E083E00E94360189EB58
:100B700091E090930101809300018091690083606E
:100B800080936900E89A8DE891E090930301809347
:100B90000201809169008C6080936900E99A62E0AB
:100BA00081E00E94360162E080E00E943601E5E2C9
:100BB000F1E085EA91E0118210821382128215829F
:100BC0001482178216821186108613861286158665
:100BD00014861786168670968E179F0761F70E94F7
:100BE0008C0089E191E00E943D048FE191E00E9438
:100BF0003D041DE2812E912C00E0A02E00E0B02EDD
:100C000081E00E94DF0020910801309109018130CC
:100C1000910509F0B1C0232B59F5909309018093F8
:100C20000801E0911B01F0911C011E161F0604F53E
:100C30002091190130911A01B3E0220F331FBA95A8
:100C4000E1F7DF011296A20FB31FAA0FBB1FAB5D26
:100C5000BE4F1D921C923197F0931C01E0931B0133
:100C6000E20FF31FEE0FFF1FEB5DFE4F91838083BA
:100C700080E00E94DF002091060130910701813061
:100C8000910509F082C0232B69F5909307018093A9
:100C9000060140911B0150911C014530510514F58E
:100CA0002091190130911A0163E0220F331F6A95D8
:100CB000E1F7F901E40FF51FEE0FFF1FEB5DFE4FAB
:100CC00011821082FA013396E20FF31FEE0FFF1F1D
:100CD000EB5DFE4F918380834F5F5F4F50931C010C
:100CE00040931B01E0900401F0900501C701B4019D
:100CF0000E949D07892B69F480911701909118013A
:100D00008230910509F456C00CF048C0019709F4EF
:100D10004EC0D12CC12C86010F5F1F4F0130110531
:100D200009F04EC060E08CE00E94080161E08DE0B7
:100D30000E9408010330110509F04EC060E08EE00A
:100D40000E94080161E08FE00E9408010530110552
:100D500009F04EC060E080E10E94080161E081E19D
:100D60000E9408010730110509F04EC060E082E1E1
:100D70000E94080161E051C02130310509F078CFAF
:100D8000109209011092080173CF2130310509F04A
:100D9000A9CF1092070110920601A4CF83309105CC
:100DA00061F0049709F0B5CF0E946903B2CF0E94A9
:100DB000D203AFCF0E94F902ACCF0E948B02A9CF21
:100DC00061E08CE00E9408010230110509F0AECF0D
:100DD00060E08DE00E94080161E08EE00E94080161
:100DE0000430110509F0AECF60E08FE00E940801E9
:100DF00061E080E10E9408010630110509F0AECFE4
:100E000060E081E10E94080161E082E10E94080146
:100E100060E00830110509F0ADCF83E10E940801C0
:100E2000D0E0C0E0FE0183E0EE0FFF1F8A95E1F7FE
:100E3000EC0DFD1DEE0FFF1FEB5DFE4F7080219648
:100E4000672D84E0C130D10521F0C230D10579F59C
:100E500085E00E940801672D89E0C630D10509F4BC
:100E600043C02BC0C930D105E9F60E9467012B01B0
:100E70003C010E9467016419750986099709683E5B
:100E8000734081059105A8F368010930110509F047
:100E900042CF8FEFE81AF80AF0920501E0920401C0
:100EA000A114B10409F4ACCE0E940000A9CEC33055
:100EB000D10549F486E00E940801672D8AE0C73019
:100EC000D10591F006C0C430D10549F487E00E94F5
:100ED0000801C830D10531F6672D8BE005C088E0E8
:100EE000C530D10509F0B7CF0E9408019BCFCF9341
:100EF000DF93E9E1F1E0C4E0D0E0D183C083D383A4
:100F0000C28315821482CF010E943D04EFE1F1E01B
:100F1000D183C083D383C28381E090E095838483AF
:100F2000CF010E943D04E3E1F1E0D183C083D3838C
:100F3000C283DF91CF910C948C0097FB072E16F49F
:100F4000009407D077FD09D00E94B10707FC05D0B7
:100F50003EF4909581959F4F0895709561957F4FD0
:100F60000895AA1BBB1B51E107C0AA1FBB1FA617F0
:100F7000B70710F0A61BB70B881F991F5A95A9F742
:100F800080959095BC01CD010895EE0FFF1F05904F
:0A0F9000F491E02D0994F894FFCFCE
:060F9A008C018C01010036
:00000001FF
