:100000000C945C000C9478010C9451010C947900D0
:100010000C9479000C9479000C9479000C9479007C
:100020000C9479000C9479000C9479000C9479006C
:100030000C9479000C9479000C9479000C9479005C
:100040000C9407010C9479000C9479000C947900BD
:100050000C9479000C9479000C9479000C9479003C
:100060000C9479000C947900000000002400270013
:100070002A0000000000250028002B0004040404CE
:100080000404040402020202020203030303030342
:10009000010204081020408001020408102001021F
:1000A00004081020000000080002010000030407FB
:1000B000000000000000000011241FBECFEFD8E0B8
:1000C000DEBFCDBF11E0A0E0B1E0EEE4F5E002C09C
:1000D00005900D92A430B107D9F721E0A4E0B1E07A
:1000E00001C01D92A131B207E1F70E949F010C945B
:1000F000A5020C94000090E0FC01EC55FF4F249108
:10010000FC01E057FF4F3491FC01E458FF4FE491AC
:10011000EE23C9F0222339F0233001F1A8F4213075
:1001200019F1223029F1F0E0EE0FFF1FEE58FF4FDA
:10013000A591B4918FB7F894EC91611126C03095D8
:100140003E233C938FBF08952730A9F02830C9F093
:10015000243049F7809180008F7D03C0809180001A
:100160008F7780938000DFCF84B58F7784BDDBCF1E
:1001700084B58F7DFBCF8091B0008F778093B000E6
:10018000D2CF8091B0008F7DF9CF3E2BDACFCF93C5
:10019000DF9390E0FC01E057FF4F249184589F4F7C
:1001A000FC0184918823D1F090E0880F991FFC0115
:1001B000E859FF4FA591B491FC01EE58FF4FC5914E
:1001C000D491623071F49FB7F8943C91822F80955E
:1001D00083238C93E8812E2B28839FBFDF91CF91BF
:1001E00008958FB7F894EC912E2B2C938FBFF6CFF8
:1001F00081E090E09093070180930601089581E0EB
:1002000090E09093050180930401089508951F9252
:100210000F920FB60F9211242F933F938F939F93BA
:10022000AF93BF9380910D0190910E01A0910F01AA
:10023000B091100130910C0123E0230F2D3758F5B8
:100240000196A11DB11D20930C0180930D01909387
:100250000E01A0930F01B0931001809108019091BD
:100260000901A0910A01B0910B010196A11DB11DD8
:100270008093080190930901A0930A01B0930B01A8
:10028000BF91AF919F918F913F912F910F900FBE92
:100290000F901F90189526E8230F0296A11DB11DFF
:1002A000D2CF1F920F920FB60F9211242F933F932C
:1002B0004F935F936F937F938F939F93AF93BF936E
:1002C000EF93FF93E0910201F09103010995FF91F3
:1002D000EF91BF91AF919F918F917F916F915F91BE
:1002E0004F913F912F910F900FBE0F901F90189537
:1002F0001F920F920FB60F9211242F933F934F939B
:100300005F936F937F938F939F93AF93BF93EF937D
:10031000FF93E0910001F09101010995FF91EF91A8
:10032000BF91AF919F918F917F916F915F914F910D
:100330003F912F910F900FBE0F901F9018957894BA
:1003400084B5826084BD84B5816084BD85B58260DA
:1003500085BD85B5816085BD80916E00816080938B
:100360006E001092810080918100826080938100F4
:100370008091810081608093810080918000816004
:10038000809380008091B10084608093B10080915F
:10039000B00081608093B00080917A008460809387
:1003A0007A0080917A00826080937A0080917A004E
:1003B000816080937A0080917A00806880937A00CF
:1003C0001092C10061E084E00E94C70061E085E016
:1003D0000E94C70061E086E00E94C70061E087E0FC
:1003E0000E94C70061E088E00E94C70061E089E0E8
:1003F0000E94C70061E08AE00E94C70061E08BE0D4
:100400000E94C70061E08CE00E94C70061E08DE0BF
:100410000E94C70061E08EE00E94C70061E08FE0AB
:100420000E94C70061E080E10E94C70061E081E1B5
:100430000E94C70061E082E10E94C70061E083E1A1
:100440000E94C70061E084E00E947B0061E085E0DB
:100450000E947B0061E086E00E947B0061E087E013
:100460000E947B0061E088E00E947B0061E089E0FF
:100470000E947B0061E08AE00E947B0061E08BE0EB
:100480000E947B0060E08CE00E947B0060E08DE0D9
:100490000E947B0060E08EE00E947B0060E08FE0C5
:1004A0000E947B0060E080E10E947B0060E081E1CF
:1004B0000E947B0060E082E10E947B0060E083E1BB
:1004C0000E947B0062E082E00E94C70062E083E05D
:1004D0000E94C70088EF90E0909301018093000193
:1004E000809169008C7F826080936900E89A8FEF29
:1004F00090E0909303018093020180916900837FD3
:10050000886080936900E99AC0E0D0E020910601FC
:10051000309107018091040190910501213031054E
:1005200011F430E020E08130910511F490E080E09A
:100530002097A1F3309307012093060190930501C2
:0E054000809304010E940000E1CFF894FFCFE9
:04054E00060106019B
:00000001FF
