:100000000C9462000C94D1020C94AA020C948A0005
:100010000C948A000C948A000C948A000C948A0038
:100020000C948A000C948A000C948A000C948A0028
:100030000C948A000C948A000C948A000C948A0018
:100040000C9460020C948A000C948A000C948A0030
:100050000C948A000C948A000C948A000C948A00F8
:100060000C948A000C948A000000000024002700F1
:100070002A0000000000250028002B0000000000DE
:1000800023002600290004040404040404040202DA
:100090000202020203030303030301020408102007
:1000A0004080010204081020010204081020000012
:1000B0000008000201000003040700000000000027
:1000C0000000C50611241FBECFEFD8E0DEBFCDBFB4
:1000D00011E0A0E0B1E0E6E3FEE002C005900D9281
:1000E000A430B107D9F721E0A4E0B1E001C01D922E
:1000F000A53AB207E1F710E0C2E6D0E004C02197CC
:10010000FE010E941307C136D107C9F70E94F80209
:100110000C9419070C940000E0912101F091220148
:100120001E161F0614F580911F019091200123E0F7
:10013000880F991F2A95E1F7DC01AE0FBF1FAA0FA8
:10014000BB1FAB5DBE4F1D921C923197F0932201F5
:10015000E0932101E80FF91FEE0FFF1FEB5DFE4F4B
:1001600081E090E091838083089580E00895E0919C
:100170002101F0912201E730F10514F580911F0172
:100180009091200123E0880F991F2A95E1F7DC0167
:10019000AE0FBF1FAA0FBB1FAB5DBE4F1D921C92BF
:1001A0003196F0932201E0932101E80FF91FEE0F41
:1001B000FF1FEB5DFE4F81E090E091838083089507
:1001C00080E00895AFE1B1E0ED91FC91119783E0FB
:1001D000EE0FFF1F8A95E1F712968D919C91139770
:1001E000E80FF91FEE0FFF1FEB5DFE4F118210822B
:1001F00084E090E011969C938E9313969C938E933B
:10020000129781E090E090936E0180936D011596B6
:100210009C938E9314970895833081F028F4813055
:1002200099F08230A9F008958730A9F08830C9F09C
:100230008430B1F4809180008F7D03C08091800074
:100240008F7780938000089584B58F7784BD08955B
:1002500084B58F7DFBCF8091B0008F778093B00005
:1002600008958091B0008F7DF9CFCF93DF93282F31
:1002700030E0F901E255FF4F8491F901E656FF4F56
:10028000D491F901EA57FF4FC491CC23A1F0811119
:100290000E940C01EC2FF0E0EE0FFF1FE458FF4F1F
:1002A000A591B491EC91ED2381E090E009F480E018
:1002B000DF91CF91089580E090E0FACF1F93CF9324
:1002C000DF93282F30E0F901E255FF4F8491F901C7
:1002D000E656FF4FD491F901EA57FF4FC491CC2362
:1002E000A9F0162F81110E940C01EC2FF0E0EE0F07
:1002F000FF1FEE58FF4FA591B4918FB7F894EC9182
:10030000111108C0D095DE23DC938FBFDF91CF9110
:100310001F910895DE2BF8CFCF93DF9390E0FC017F
:10032000E656FF4F24918A579F4FFC018491882302
:10033000D1F090E0880F991FFC01E859FF4FA5917B
:10034000B491FC01EE58FF4FC591D491623071F425
:100350009FB7F8943C91822F809583238C93E881FA
:100360002E2B28839FBFDF91CF9108958FB7F894EC
:10037000EC912E2B2C938FBFF6CF3FB7F894809142
:100380001B0190911C01A0911D01B0911E0126B589
:10039000A89B05C02F3F19F00196A11DB11D3FBFBD
:1003A000BA2FA92F982F8827BC01CD01620F711D8C
:1003B000811D911D42E0660F771F881F991F4A9586
:1003C000D1F7089508952091100130911101253041
:1003D000310524F580910E0190910F0143E0880FC3
:1003E000991F4A95E1F7FC01E20FF31FEE0FFF1F83
:1003F000EB5DFE4F11821082F9013396E80FF91F71
:10040000EE0FFF1FEB5DFE4F81E090E09183808354
:100410002F5F3F4F30931101209310010895E09119
:100420001001F09111011E161F0614F580910E01A6
:1004300090910F0123E0880F991F2A95E1F7DF01C2
:100440001296A80FB91FAA0FBB1FAB5DBE4F1D921E
:100450001C923197F0931101E0931001E80FF91FFE
:10046000EE0FFF1FEB5DFE4F81E090E091838083F4
:100470000895FC0184819581892BC9F483E090E083
:1004800093838283118210820190F081E02D84E0B9
:10049000EE0FFF1F8A95E1F7EB5DFE4F81E090E0E4
:1004A000978386839187808793878287089583E0E7
:1004B00090E09383828387E090E091838083E4CF10
:1004C0001F920F920FB60F9211242F933F938F9389
:1004D0009F93AF93BF938091170190911801A091C2
:1004E0001901B0911A013091160123E0230F2D3725
:1004F00058F50196A11DB11D209316018093170197
:1005000090931801A0931901B0931A0180911B01D7
:1005100090911C01A0911D01B0911E010196A11D99
:10052000B11D80931B0190931C01A0931D01B093FA
:100530001E01BF91AF919F918F913F912F910F908D
:100540000FBE0F901F90189526E8230F0296A11D4D
:10055000B11DD2CF1F920F920FB60F9211242F937D
:100560003F934F935F936F937F938F939F93AF933B
:10057000BF93EF93FF93E0910201F091030109957E
:10058000FF91EF91BF91AF919F918F917F916F916B
:100590005F914F913F912F910F900FBE0F901F9041
:1005A00018951F920F920FB60F9211242F933F931D
:1005B0004F935F936F937F938F939F93AF93BF936B
:1005C000EF93FF93E0910001F09101010995FF91F4
:1005D000EF91BF91AF919F918F917F916F915F91BB
:1005E0004F913F912F910F900FBE0F901F90189534
:1005F000789484B5826084BD84B5816084BD85B5FE
:10060000826085BD85B5816085BD80916E00816009
:1006100080936E00109281008091810082608093AF
:1006200081008091810081608093810080918000B1
:100630008160809380008091B10084608093B100DC
:100640008091B00081608093B00080917A008460D6
:1006500080937A0080917A00826080937A00809102
:100660007A00816080937A0080917A00806880931C
:100670007A001092C10061E084E00E948C0161E088
:1006800085E00E948C0161E086E00E948C0161E0BF
:1006900087E00E948C0161E088E00E948C0161E0AB
:1006A00089E00E948C0161E08AE00E948C0161E097
:1006B0008BE00E948C0161E08CE00E948C0161E083
:1006C0008DE00E948C0161E08EE00E948C0161E06F
:1006D0008FE00E948C0161E080E10E948C0161E06A
:1006E00081E10E948C0161E082E10E948C0161E065
:1006F00083E10E948C0160E084E00E945E0160E082
:1007000085E00E945E0160E086E00E945E0160E09C
:1007100087E00E945E0160E088E00E945E0160E088
:1007200089E00E945E0160E08AE00E945E0160E074
:100730008BE00E945E0161E08CE00E945E0161E05E
:100740008DE00E945E0161E08EE00E945E0161E04A
:100750008FE00E945E0161E080E10E945E0161E045
:1007600081E10E945E0161E082E10E945E0161E040
:1007700083E10E945E0162E082E00E948C0162E0FF
:1007800083E00E948C018FE092E0909301018093BE
:10079000000180916900836080936900E89A83EE8C
:1007A00091E09093030180930201809169008C6035
:1007B00080936900E99A62E081E00E948C0162E026
:1007C00080E00E948C01E5E2F1E085EA91E011828F
:1007D0001082138212821582148217821682118669
:1007E00010861386128615861486178616867096CE
:1007F0008E179F0761F70E94E20088E091E00E9457
:1008000039028EE091E00E94390299249394EE24FB
:10081000E394F12C04E0202E312C81E00E9435017C
:1008200020910601309107018130910509F0B2C095
:10083000232B59F59093070180930601E0910A015B
:10084000F0910B011E161F0604F52091080130914E
:100850000901B3E0220F331FBA95E1F7DF011296C9
:10086000A20FB31FAA0FBB1FAB5DBE4F1D921C9200
:100870003197F0930B01E0930A01E20FF31FEE0FA3
:10088000FF1FEB5DFE4F9183808380E00E94350166
:1008900020910401309105018130910509F083C058
:1008A000232B69F5909305018093040140910A017F
:1008B00050910B014530510514F5209108013091FC
:1008C000090163E0220F331F6A95E1F7F901E40F94
:1008D000F51FEE0FFF1FEB5DFE4F11821082FA0134
:1008E0003396E20FF31FEE0FFF1FEB5DFE4F918378
:1008F00080834F5F5F4F50930B0140930A01C0907C
:100900001401D0901501C60166E470E00E94EB0668
:10091000892B69F480912301909124018230910503
:1009200009F4E8C00CF048C0019709F490C0B12C5C
:10093000A12C85010F5F1F4F0130110509F083C104
:1009400061E084E00E945E0160E085E00E945E015B
:100950000330110509F083C161E086E00E945E0169
:1009600060E087E00E945E010530110509F083C157
:1009700061E088E00E945E0160E089E00E945E0123
:100980000730110509F083C161E08AE00E945E0131
:1009900060E086C12130310509F077CF1092070160
:1009A0001092060172CF2130310509F0A8CF1092C4
:1009B000050110920401A3CF8330910509F4F0C022
:1009C000049709F0B4CF80911F01909120018130EC
:1009D000910509F033C120910A0130910B0140913A
:1009E0002101509122012417350734F42D5F3F4F28
:1009F000241735070CF09AC0E0912101F0912201F3
:100A0000DC0123E0AA0FBB1F2A95E1F7AE0FBF1F41
:100A1000AA0FBB1FAB5DBE4F1D921C920197909316
:100A2000200180931F0143E0880F991F4A95E1F749
:100A3000E80FF91FEE0FFF1FEB5DFE4FF182E08222
:100A40000E948C00811173CF83E090E04CC08091B4
:100A50001F019091200186309105A9F42091100189
:100A60003091110140912101509122012417350745
:100A700084F42D5F3F4F241735075CF0309224013A
:100A80002092230154CF873091051CF00E94E20090
:100A90004ECFE0912101F0912201DC0123E0AA0F69
:100AA000BB1F2A95E1F7AE0FBF1FAA0FBB1FAB5D9F
:100AB000BE4F1D921C9201969093200180931F01BE
:100AC00043E0880F991F4A95E1F7E80FF91FEE0FF1
:100AD000FF1FEB5DFE4FF182E0820E948C008111CE
:100AE00026CF82E090E090932401809323010E941E
:100AF000B7001DCF80911F01909120018630910594
:100B0000D1F44091210150912201209110013091A6
:100B10001101B901615071094617570784F02F5F21
:100B20003F4F241735075CF083E090E09093240159
:100B300080932301FCCE873091050CF0A7CFE09184
:100B40002101F0912201DC01C3E0AA0FBB1FCA956D
:100B5000E1F7AE0FBF1FAA0FBB1FAB5DBE4F1D92CB
:100B60001C9201969093200180931F0113E0880F3F
:100B7000991F1A95E1F7E80FF91FEE0FFF1FEB5DC4
:100B8000FE4FF182E0820E94B7008111D0CE81E059
:100B900090E090932401809323010E948C00C7CEA3
:100BA00080911F019091200181309105B1F4409115
:100BB00021015091220120910A0130910B01B901CC
:100BC000615071094617570764F02F5F3F4F241794
:100BD00035073CF082E090E0A9CF181619060CF01A
:100BE00055CFE0912101F0912201DC0163E0AA0FD1
:100BF000BB1F6A95E1F7AE0FBF1FAA0FBB1FAB5D0E
:100C0000BE4F1D921C9201979093200180931F016B
:100C1000A3E0880F991FAA95E1F7E80FF91FEE0FDF
:100C2000FF1FEB5DFE4FF182E0820E94B700811151
:100C30007ECE3092240120922301AFCF18161906E0
:100C40000CF024CFD9CE60E084E00E945E01023037
:100C5000110509F079CE61E085E00E945E0160E057
:100C600086E00E945E010430110509F079CE61E052
:100C700087E00E945E0160E088E00E945E0106302D
:100C8000110509F079CE61E089E00E945E0160E023
:100C90008AE00E945E0161E00830110509F078CE1B
:100CA0008BE00E945E01D0E0C0E0FE0183E0EE0F29
:100CB000FF1F8A95E1F7EA0DFB1DEE0FFF1FEB5DAD
:100CC000FE4F70802196692D67198CE0C130D105E7
:100CD00031F0C230D10569F4692D67198DE00E94A9
:100CE0005E01692D671981E1C630D10509F44AC05A
:100CF00008C0C330D10561F4692D67198EE00E94E8
:100D00005E01C730D10561F4692D671982E13AC0EF
:100D1000C430D10581F5692D67198FE00E945E010D
:100D2000C830D10511F6692D671983E10E945E0173
:100D30000E94BD012B013C010E94BD01641975098F
:100D400086099709683E734081059105A8F358010B
:100D50000830110509F0EDCD8FEFC81AD80AD092EE
:100D60001501C092140180E090E0892B09F455CD63
:100D70000E94000052CD692D671980E1C530D10570
:100D800009F0AFCF0E945E0190CFCF93DF93E8E0F0
:100D9000F1E0C4E0D0E0D183C083D383C283158265
:100DA0001482CF010E943902EEE0F1E0D183C083CA
:100DB000D383C28381E090E095838483CF010E9436
:100DC0003902EFE1F1E0D183C083D383C283DF91A5
:100DD000CF910C94E20097FB072E16F4009407D0F5
:100DE00077FD09D00E94FF0607FC05D03EF49095E0
:100DF00081959F4F0895709561957F4F0895AA1B27
:100E0000BB1B51E107C0AA1FBB1FA617B70710F0F5
:100E1000A61BB70B881F991F5A95A9F78095909527
:100E2000BC01CD010895EE0FFF1F0590F491E02D58
:060E30000994F894FFCFC5
:040E3600E201E201F2
:00000001FF
