:020000040000FA
:100000000C945D000C949C020C9475020C94850079
:100010000C9485000C9485000C9485000C9485004C
:100020000C9485000C9485000C9485000C9485003C
:100030000C9485000C9485000C9485000C9485002C
:100040000C942B020C9485000C9485000C94850074
:100050000C9485000C9485000C9485000C9485000C
:100060000C9485000C9485000000000024002700FB
:100070002A0000000000250028002B0004040404CE
:100080000404040402020202020203030303030342
:10009000010204081020408001020408102001021F
:1000A00004081020000000080002010000030407FB
:1000B0000000000000000000180611241FBECFEF52
:1000C000D8E0DEBFCDBF11E0A0E0B1E0ECEDFCE098
:1000D00002C005900D92A430B107D9F721E0A4E049
:1000E000B1E001C01D92A53AB207E1F710E0CDE5FD
:1000F000D0E004C02197FE010E946606CC35D107EE
:10010000C9F70E94C3020C946C060C940000E091A5
:100110002101F09122011E161F0614F580911F0186
:100120009091200123E0880F991F2A95E1F7DC01C7
:10013000AE0FBF1FAA0FBB1FAB5DBE4F1D921C921F
:100140003197F0932201E0932101E80FF91FEE0FA0
:10015000FF1FEB5DFE4F81E090E091838083089567
:1001600080E00895E0912101F0912201E730F1054E
:1001700014F580911F019091200123E0880F991FB1
:100180002A95E1F7DC01AE0FBF1FAA0FBB1FAB5DC5
:10019000BE4F1D921C923196F0932201E0932101F3
:1001A000E80FF91FEE0FFF1FEB5DFE4F81E090E0BF
:1001B00091838083089580E0089590E0FC01EC55E0
:1001C000FF4F2491FC01E057FF4F3491FC01E458AC
:1001D000FF4FE491EE23C9F0222339F0233001F1DF
:1001E000A8F4213019F1223029F1F0E0EE0FFF1FC1
:1001F000EE58FF4FA591B4918FB7F894EC9161112F
:1002000026C030953E233C938FBF08952730A9F038
:100210002830C9F0243049F7809180008F7D03C0D9
:10022000809180008F7780938000DFCF84B58F77B7
:1002300084BDDBCF84B58F7DFBCF8091B0008F77FD
:100240008093B000D2CF8091B0008F7DF9CF3E2B4C
:10025000DACFCF93DF9390E0FC01E057FF4F24917A
:1002600084589F4FFC0184918823D1F090E0880F3F
:10027000991FFC01E859FF4FA591B491FC01EE587C
:10028000FF4FC591D491623071F49FB7F8943C91BF
:10029000822F809583238C93E8812E2B28839FBF08
:1002A000DF91CF9108958FB7F894EC912E2B2C937A
:1002B0008FBFF6CF3FB7F89480910F019091100156
:1002C000A0911101B091120126B5A89B05C02F3F46
:1002D00019F00196A11DB11D3FBFBA2FA92F982F6C
:1002E0008827BC01CD01620F711D811D911D42E067
:1002F000660F771F881F991F4A95D1F708950895B3
:1003000020911501309116012530310524F5809199
:1003100013019091140143E0880F991F4A95E1F76A
:10032000FC01E20FF31FEE0FFF1FEB5DFE4F11828A
:100330001082F9013396E80FF91FEE0FFF1FEB5DF6
:10034000FE4F81E090E0918380832F5F3F4F309399
:100350001601209315010895E0911501F091160101
:100360001E161F0614F5809113019091140123E0CD
:10037000880F991F2A95E1F7DF011296A80FB91F80
:10038000AA0FBB1FAB5DBE4F1D921C923197F0931D
:100390001601E0931501E80FF91FEE0FFF1FEB5D4B
:1003A000FE4F81E090E0918380830895FC01848179
:1003B0009581892BC9F483E090E093838283118235
:1003C00010820190F081E02D84E0EE0FFF1F8A95EE
:1003D000E1F7EB5DFE4F81E090E0978386839187A4
:1003E000808793878287089583E090E09383828358
:1003F00087E090E091838083E4CFCF93DF93CFE1D8
:10040000D1E0E881F98183E0EE0FFF1F8A95E1F7E3
:100410008A819B81E80FF91FEE0FFF1FEB5DFE4FF6
:100420001182108289E191E00E94D60183E191E07E
:100430000E94D60184E090E0998388839B838A831D
:1004400081E090E090936E0180936D019D838C8399
:10045000DF91CF9108951F920F920FB60F92112442
:100460002F933F938F939F93AF93BF9380910B01F3
:1004700090910C01A0910D01B0910E0130910A01F3
:1004800023E0230F2D3758F50196A11DB11D2093B0
:100490000A0180930B0190930C01A0930D01B0937E
:1004A0000E0180910F0190911001A0911101B09166
:1004B00012010196A11DB11D80930F0190931001AF
:1004C000A0931101B0931201BF91AF919F918F91B1
:1004D0003F912F910F900FBE0F901F90189526E817
:1004E000230F0296A11DB11DD2CF1F920F920FB6FE
:1004F0000F9211242F933F934F935F936F937F93AA
:100500008F939F93AF93BF93EF93FF93E09102017B
:10051000F09103010995FF91EF91BF91AF919F91E8
:100520008F917F916F915F914F913F912F910F909C
:100530000FBE0F901F9018951F920F920FB60F923B
:1005400011242F933F934F935F936F937F938F93D8
:100550009F93AF93BF93EF93FF93E0910001F091CE
:1005600001010995FF91EF91BF91AF919F918F91FB
:100570007F916F915F914F913F912F910F900FBE9F
:100580000F901F901895789484B5826084BD84B5CF
:10059000816084BD85B5826085BD85B5816085BD7E
:1005A00080916E00816080936E0010928100809136
:1005B00081008260809381008091810081608093BE
:1005C0008100809180008160809380008091B100E3
:1005D00084608093B1008091B00081608093B0000E
:1005E00080917A00846080937A0080917A008260A2
:1005F00080937A0080917A00816080937A00809164
:100600007A00806880937A001092C10061E084E0F3
:100610000E94290161E085E00E94290161E086E0F5
:100620000E94290161E087E00E94290161E088E0E1
:100630000E94290161E089E00E94290161E08AE0CD
:100640000E94290161E08BE00E94290161E08CE0B9
:100650000E94290161E08DE00E94290161E08EE0A5
:100660000E94290161E08FE00E94290161E080E1A0
:100670000E94290161E081E10E94290161E082E19B
:100680000E94290161E083E10E94290160E084E089
:100690000E94DD0060E085E00E94DD0060E086E011
:1006A0000E94DD0060E087E00E94DD0060E088E0FD
:1006B0000E94DD0060E089E00E94DD0060E08AE0E9
:1006C0000E94DD0060E08BE00E94DD0061E08CE0D4
:1006D0000E94DD0061E08DE00E94DD0061E08EE0BF
:1006E0000E94DD0061E08FE00E94DD0061E080E1BA
:1006F0000E94DD0061E081E10E94DD0061E082E1B5
:100700000E94DD0061E083E10E94DD0062E082E0A2
:100710000E94290162E083E00E9429018CEA91E0B5
:100720009093010180930001809169008C7F826029
:1007300080936900E89A80E891E0909303018093A8
:10074000020180916900837F886080936900E99A43
:10075000E5E2F1E085EA91E01182108213821282D3
:1007600015821482178216821186108613861286CD
:10077000158614861786168670968E179F0761F762
:100780000E94FD0189E191E00E94D60183E191E0A0
:100790000E94D601EE24E394F12C9924939474E002
:1007A000272E312C8091080190910901019721F4A5
:1007B00010920901109208018091060190910701A1
:1007C000019721F41092070110920601C0900401D4
:1007D000D0900501C60166E470E00E943E06892BB8
:1007E00061F480912301909124018230910509F4F4
:1007F000D4C0B4F5019709F47DC0B12CA12C8501BA
:100800000F5F1F4F0130110509F070C161E084E0F6
:100810000E94DD0060E085E00E94DD0003301105EC
:1008200009F070C161E086E00E94DD0060E087E0D1
:100830000E94DD000530110509F070C161E088E01B
:100840000E94DD0060E089E00E94DD0007301105B4
:1008500009F070C161E08AE00E94DD0060E073C1D0
:100860008330910509F4EFC0049739F680911F0198
:10087000909120018130910509F033C120911B0135
:1008800030911C014091210150912201241735071C
:1008900034F42D5F3F4F241735070CF09AC0E091D8
:1008A0002101F0912201DC0123E0AA0FBB1F2A9550
:1008B000E1F7AE0FBF1FAA0FBB1FAB5DBE4F1D926E
:1008C0001C9201979093200180931F0143E0880FB1
:1008D000991F4A95E1F7E80FF91FEE0FFF1FEB5D37
:1008E000FE4FF182E0820E948700811186CF83E073
:1008F00090E04CC080911F019091200186309105BD
:10090000A9F42091150130911601409121015091D7
:1009100022012417350784F42D5F3F4F2417350734
:100920005CF0309224012092230167CF873091053B
:100930001CF00E94FD0161CFE0912101F0912201A4
:10094000DC0123E0AA0FBB1F2A95E1F7AE0FBF1F02
:10095000AA0FBB1FAB5DBE4F1D921C9201969093D8
:10096000200180931F0143E0880F991F4A95E1F70A
:10097000E80FF91FEE0FFF1FEB5DFE4FF182E082E3
:100980000E948700811139CF82E090E0909324018A
:10099000809323010E94B20030CF80911F0190917B
:1009A000200186309105D1F440912101509122011E
:1009B0002091150130911601B90161507109461756
:1009C000570784F02F5F3F4F241735075CF083E013
:1009D00090E090932401809323010FCF87309105FD
:1009E0000CF0A7CFE0912101F0912201DC01C3E0DE
:1009F000AA0FBB1FCA95E1F7AE0FBF1FAA0FBB1FFF
:100A0000AB5DBE4F1D921C92019690932001809386
:100A10001F0113E0880F991F1A95E1F7E80FF91FDE
:100A2000EE0FFF1FEB5DFE4FF182E0820E94B200ED
:100A30008111E3CE81E090E0909324018093230123
:100A40000E948700DACE80911F01909120018130B1
:100A50009105B1F4409121015091220120911B0197
:100A600030911C01B901615071094617570764F0B4
:100A70002F5F3F4F241735073CF082E090E0A9CF6D
:100A8000181619060CF055CFE0912101F0912201C2
:100A9000DC0163E0AA0FBB1F6A95E1F7AE0FBF1F31
:100AA000AA0FBB1FAB5DBE4F1D921C920197909386
:100AB000200180931F01A3E0880F991FAA95E1F7F9
:100AC000E80FF91FEE0FFF1FEB5DFE4FF182E08292
:100AD0000E94B200811191CE309224012092230114
:100AE000AFCF181619060CF024CFD9CE60E084E001
:100AF0000E94DD000230110509F08CCE61E085E036
:100B00000E94DD0060E086E00E94DD0004301105F7
:100B100009F08CCE61E087E00E94DD0060E088E0B3
:100B20000E94DD000630110509F08CCE61E089E0FD
:100B30000E94DD0060E08AE00E94DD0061E0083094
:100B4000110509F08BCE8BE00E94DD00D0E0C0E003
:100B5000FE0183E0EE0FFF1F8A95E1F7EA0DFB1D12
:100B6000EE0FFF1FEB5DFE4F70802196692D671918
:100B70008CE0C130D10531F0C230D10569F4692D66
:100B800067198DE00E94DD00692D671981E1C6308B
:100B9000D10509F44AC008C0C330D10561F4692DFC
:100BA00067198EE00E94DD00C730D10561F4692D20
:100BB000671982E13AC0C430D10581F5692D671902
:100BC0008FE00E94DD00C830D10511F6692D67194C
:100BD00083E10E94DD000E945A012B013C010E942A
:100BE0005A016419750986099709683E73408105A1
:100BF0009105A8F358010830110509F000CE8FEFD8
:100C0000C81AD80AD0920501C092040180E090E091
:100C1000892B09F4C7CD0E940000C4CD692D671946
:100C200080E1C530D10509F0AFCF0E94DD0090CF43
:100C3000CF93DF93E9E1F1E0C4E0D0E0D183C0835A
:100C4000D383C28315821482CF010E94D601E3E1CF
:100C5000F1E0D183C083D383C28381E090E09583A8
:100C60008483CF010E94D601EFE1F1E0D183C083FC
:100C7000D383C283DF91CF910C94FD0197FB072EA4
:100C800016F4009407D077FD09D00E94520607FCA5
:100C900005D03EF4909581959F4F0895709561958C
:100CA0007F4F0895AA1BBB1B51E107C0AA1FBB1FA2
:100CB000A617B70710F0A61BB70B881F991F5A95E8
:100CC000A9F780959095BC01CD010895EE0FFF1F07
:100CD0000590F491E02D0994F894FFCF7F017F01F6
:107E0000112484B714BE81FFF0D085E080938100F7
:107E100082E08093C00088E18093C10086E0809377
:107E2000C20080E18093C4008EE0C9D0259A86E02C
:107E300020E33CEF91E0309385002093840096BBD3
:107E4000B09BFECF1D9AA8958150A9F7CC24DD24C4
:107E500088248394B5E0AB2EA1E19A2EF3E0BF2EE7
:107E6000A2D0813461F49FD0082FAFD0023811F036
:107E7000013811F484E001C083E08DD089C08234E0
:107E800011F484E103C0853419F485E0A6D080C0E4
:107E9000853579F488D0E82EFF2485D0082F10E0AE
:107EA000102F00270E291F29000F111F8ED06801E7
:107EB0006FC0863521F484E090D080E0DECF843638
:107EC00009F040C070D06FD0082F6DD080E0C81688
:107ED00080E7D80618F4F601B7BEE895C0E0D1E017
:107EE00062D089930C17E1F7F0E0CF16F0E7DF06D8
:107EF00018F0F601B7BEE89568D007B600FCFDCFD4
:107F0000A601A0E0B1E02C9130E011968C91119780
:107F100090E0982F8827822B932B1296FA010C0160
:107F200087BEE89511244E5F5F4FF1E0A038BF0790
:107F300051F7F601A7BEE89507B600FCFDCF97BE46
:107F4000E89526C08437B1F42ED02DD0F82E2BD052
:107F50003CD0F601EF2C8F010F5F1F4F84911BD097
:107F6000EA94F801C1F70894C11CD11CFA94CF0C13
:107F7000D11C0EC0853739F428D08EE10CD085E9AC
:107F80000AD08FE07ACF813511F488E018D01DD067
:107F900080E101D065CF982F8091C00085FFFCCF94
:107FA0009093C60008958091C00087FFFCCF809118
:107FB000C00084FD01C0A8958091C6000895E0E648
:107FC000F0E098E1908380830895EDDF803219F02E
:107FD00088E0F5DFFFCF84E1DECF1F93182FE3DFCA
:107FE0001150E9F7F2DF1F91089580E0E8DFEE27F6
:047FF000FF270994CA
:027FFE00040479
:00000001FF
