:100000000C9462000C948D050C9466050C948A0087
:100010000C948A000C948A000C948A000C948A0038
:100020000C948A000C948A000C948A000C948A0028
:100030000C948A000C948A000C948A000C948A0018
:100040000C941C050C948A000C948A000C948A0071
:100050000C948A000C948A000C948A000C948A00F8
:100060000C948A000C948A000000000024002700F1
:100070002A0000000000250028002B0000000000DE
:1000800023002600290004040404040404040202DA
:100090000202020203030303030301020408102007
:1000A0004080010204081020010204081020000012
:1000B0000008000201000003040700000000000027
:1000C0000000F70711241FBECFEFD8E0DEBFCDBF81
:1000D00011E0A0E0B1E0EAE9F0E102C005900D9284
:1000E000A830B107D9F721E0A8E0B1E001C01D9226
:1000F000A73AB207E1F710E0C2E6D0E004C02197CA
:10010000FE010E944508C136D107C9F70E94B40517
:100110000C944B080C940000A5E1B1E0ED91FC912A
:10012000119783E0EE0FFF1F8A95E1F712968D91EC
:100130009C911397E80FF91FEE0FFF1FE95DFE4F2B
:100140001182108284E090E011969C938E93139616
:100150009C938E93129781E090E09093700180932E
:100160006F0115969C938E9314979093070180933B
:1001700006010895833081F028F4813099F08230AF
:10018000A9F008958730A9F08830C9F08430B1F41F
:10019000809180008F7D03C0809180008F77809355
:1001A0008000089584B58F7784BD089584B58F7DD0
:1001B000FBCF8091B0008F778093B000089580913D
:1001C000B0008F7DF9CFCF93DF93282F30E0F90176
:1001D000E255FF4F8491F901E656FF4FD491F901A2
:1001E000EA57FF4FC491CC23A1F081110E94BA00BD
:1001F000EC2FF0E0EE0FFF1FE458FF4FA591B491F4
:10020000EC91ED2381E090E009F480E0DF91CF9163
:10021000089580E090E0FACF1F93CF93DF93282FCB
:1002200030E0F901E255FF4F8491F901E656FF4FA6
:10023000D491F901EA57FF4FC491CC23A9F0162FAE
:1002400081110E94BA00EC2FF0E0EE0FFF1FEE5874
:10025000FF4FA591B4918FB7F894EC91111108C09C
:10026000D095DE23DC938FBFDF91CF911F9108954E
:10027000DE2BF8CFCF93DF9390E0FC01E656FF4FE3
:1002800024918A579F4FFC0184918823D1F090E0FC
:10029000880F991FFC01E859FF4FA591B491FC010B
:1002A000EE58FF4FC591D491623071F49FB7F89426
:1002B0003C91822F809583238C93E8812E2B288379
:1002C0009FBFDF91CF9108958FB7F894EC912E2BBB
:1002D0002C938FBFF6CF3FB7F89480911101909186
:1002E0001201A0911301B091140126B5A89B05C07D
:1002F0002F3F19F00196A11DB11D3FBFBA2FA92FA5
:10030000982F8827BC01CD01620F711D811D911DA1
:1003100042E0660F771F881F991F4A95D1F708950D
:10032000089520912301309124012530310524F5D1
:10033000809121019091220143E0880F991F4A95F5
:10034000E1F7FC01E20FF31FEE0FFF1FE95DFE4F27
:1003500011821082F9013396E80FF91FEE0FFF1F8B
:10036000E95DFE4F81E090E0918380832F5F3F4FF6
:1003700030932401209323010895E0912301F0910B
:1003800024011E161F0614F580912101909122016F
:1003900023E0880F991F2A95E1F7DF011296A80F35
:1003A000B91FAA0FBB1FA95DBE4F1D921C923197AA
:1003B000F0932401E0932301E80FF91FEE0FFF1FD4
:1003C000E95DFE4F81E090E0918380830895CF92B4
:1003D000DF92EF92FF920F931F93CF93DF93D12C75
:1003E000C12C86010F5F1F4F0130110539F560E008
:1003F0008CE00E940C0161E08DE00E940C01033052
:10040000110539F560E08EE00E940C0161E08FE09B
:100410000E940C010530110539F560E080E10E9471
:100420000C0161E081E10E940C010730110539F5F2
:1004300060E082E10E940C0161E029C061E08CE093
:100440000E940C0102301105B1F660E08DE00E94BF
:100450000C0161E08EE00E940C0104301105B1F640
:1004600060E08FE00E940C0161E080E10E940C01DD
:1004700006301105B1F660E081E10E940C0161E0F7
:1004800082E10E940C0160E008301105A9F683E1C9
:100490000E940C01D0E0C0E0FE0183E0EE0FFF1FE0
:1004A0008A95E1F7EC0DFD1DEE0FFF1FE95DFE4F94
:1004B000F08021966F2D84E0C130D10521F0C2304B
:1004C000D10549F585E00E940C016F2D89E0C63009
:1004D000D105F1F126C0C930D105F1F60E946B01BA
:1004E0006B017C010E946B016C197D098E099F09CB
:1004F000683E734081059105A8F368010930110534
:1005000009F06FCFDF91CF911F910F91FF90EF9086
:10051000DF90CF900895C330D10549F486E00E9462
:100520000C016F2D8AE0C730D10591F006C0C430B0
:10053000D10549F487E00E940C01C830D10559F675
:100540006F2D8BE005C088E0C530D10509F0BDCF27
:100550000E940C01A1CFFC01808191810280F38176
:10056000E02D23E0880F991F2A95E1F7DC01AE0FFB
:10057000BF1FAA0FBB1FA95DBE4F21E030E02D9326
:100580003C93DF011196A80FB91FAA0FBB1FA95DED
:10059000BE4F2D933C933296E80FF91FEE0FFF1FCD
:1005A000E95DFE4F3183208308958091170190917A
:1005B000180118161906B4F5E0911501F09116010D
:1005C00023E0EE0FFF1F2A95E1F7E80FF91FEE0F6A
:1005D000FF1FE95DFE4F1182108281E291E00E94CF
:1005E000AB028BE191E00E94AB02809117019091E8
:1005F000180101979093180180931701E09115015C
:10060000F091160143E0EE0FFF1F4A95E1F7E80F66
:10061000F91FEE0FFF1FE95DFE4F81E090E091832F
:100620008083089580E008958091170190911801CA
:1006300087309105B4F5E0911501F091160123E0A2
:10064000EE0FFF1F2A95E1F7E80FF91FEE0FFF1FCE
:10065000E95DFE4F1182108281E291E00E94AB02BF
:100660008BE191E00E94AB028091170190911801FB
:1006700001969093180180931701E0911501F09174
:10068000160143E0EE0FFF1F4A95E1F7E80FF91F4F
:10069000EE0FFF1FE95DFE4F81E090E091838083C4
:1006A000089580E00895CF93E0911501F09116012F
:1006B000E130F105E9F440911701509118012091C2
:1006C0001D0130911E01B90161507109461757078C
:1006D000C4F02F5F3F4F241735079CF082E090E075
:1006E00090931A01809319010E94C103C0E006C0D3
:1006F0001E161F0634F00E948C00C1E08C2FCF9193
:10070000089583E0EE0FFF1F8A95E1F780911701AE
:1007100090911801E80FF91FEE0FFF1FE95DFE4FE2
:10072000118210828BE191E00E94AB028091150151
:100730009091160101979093160180931501FC0189
:1007400023E0EE0FFF1F2A95E1F7809117019091AA
:100750001801E80FF91FEE0FFF1FE95DFE4F81E062
:1007600090E0918380830E941403C82F8111BECF33
:1007700084E090E090931A01809319010E94D502C1
:10078000BDCF0F931F93CF93E0911501F091160108
:10079000E630F105E9F440911701509118012091DC
:1007A000230130912401B90161507109461757079F
:1007B000D4F02F5F3F4F24173507ACF083E090E073
:1007C00090931A01809319010E945303C0E006C060
:1007D000E730F10544F00E948C00C1E08C2FCF91EE
:1007E0001F910F91089583E0EE0FFF1F8A95E1F7A7
:1007F0008091170190911801E80FF91FEE0FFF1F6C
:10080000E95DFE4F1182108281E291E00E94AB020D
:100810008091150190911601019690931601809395
:100820001501FC0123E0EE0FFF1F2A95E1F78091EF
:10083000170190911801E80FF91FEE0FFF1FE95DF6
:10084000FE4F01E010E0118300830E941403C82FC3
:100850008111BCCF10931A01009319010E94D50297
:10086000BDCFCF93E0911501F0911601E130F10574
:10087000C1F420911D0130911E014091170150914A
:10088000180124173507B4F42D5F3F4F241735079F
:100890008CF0F0931A01E09319010E949A04C0E0D1
:1008A00006C01E161F0634F00E948C00C1E08C2F7B
:1008B000CF91089583E0EE0FFF1F8A95E1F78091B5
:1008C000170190911801E80FF91FEE0FFF1FE95D66
:1008D000FE4F118210828BE191E00E94AB02809169
:1008E00015019091160101979093160180931501BF
:1008F000FC0123E0EE0FFF1F2A95E1F7809117011D
:1009000090911801E80FF91FEE0FFF1FE95DFE4FF0
:1009100081E090E0918380830E94D502C82F8111ED
:10092000BECF83E090E090931A01809319010E945A
:100930001403BDCFCF93E0911501F0911601E6307D
:10094000F105D1F420912301309124014091170148
:100950005091180124173507C4F42D5F3F4F241719
:1009600035079CF084E090E090931A018093190180
:100970000E943104C0E006C0E730F10534F00E9467
:100980008C00C1E08C2FCF91089583E0EE0FFF1F04
:100990008A95E1F78091170190911801E80FF91FEE
:1009A000EE0FFF1FE95DFE4F1182108281E291E0A0
:1009B0000E94AB02809115019091160101969093CF
:1009C000160180931501FC0123E0EE0FFF1F2A950D
:1009D000E1F78091170190911801E80FF91FEE0FD0
:1009E000FF1FE95DFE4F81E090E0918380830E94CC
:1009F000D502C82F8111BECF82E090E090931A01FA
:100A0000809319010E941403BDCFFC01848195815C
:100A1000892B49F483E090E09383828311821082D2
:100A2000CF010C94AB0283E090E09383828387E054
:100A300090E091838083F4CF1F920F920FB60F92B4
:100A400011242F933F938F939F93AF93BF938091E4
:100A50000D0190910E01A0910F01B0911001309104
:100A60000C0123E0230F2D3758F50196A11DB11D70
:100A700020930C0180930D0190930E01A0930F0120
:100A8000B09310018091110190911201A091130176
:100A9000B09114010196A11DB11D80931101909395
:100AA0001201A0931301B0931401BF91AF919F91D4
:100AB0008F913F912F910F900FBE0F901F9018951F
:100AC00026E8230F0296A11DB11DD2CF1F920F92CF
:100AD0000FB60F9211242F933F934F935F936F9311
:100AE0007F938F939F93AF93BF93EF93FF93E09187
:100AF0000201F09103010995FF91EF91BF91AF9130
:100B00009F918F917F916F915F914F913F912F9125
:100B10000F900FBE0F901F9018951F920F920FB657
:100B20000F9211242F933F934F935F936F937F9373
:100B30008F939F93AF93BF93EF93FF93E091000147
:100B4000F09101010995FF91EF91BF91AF919F91B4
:100B50008F917F916F915F914F913F912F910F9066
:100B60000FBE0F901F901895789484B5826084BD55
:100B700084B5816084BD85B5826085BD85B58160A1
:100B800085BD80916E00816080936E00109281001F
:100B900080918100826080938100809181008160DA
:100BA000809381008091800081608093800080919B
:100BB000B10084608093B1008091B0008160809327
:100BC000B00080917A00846080937A0080917A00EE
:100BD000826080937A0080917A00816080937A00AD
:100BE00080917A00806880937A001092C10061E061
:100BF0008CE00E943A0161E08DE00E943A0161E0E0
:100C00008EE00E943A0161E08FE00E943A0161E0CB
:100C100080E10E943A0161E081E10E943A0161E0D5
:100C200082E10E943A0161E083E10E943A0161E0C1
:100C300084E00E943A0161E085E00E943A0161E0AF
:100C400086E00E943A0161E087E00E943A0161E09B
:100C500088E00E943A0161E089E00E943A0161E087
:100C60008AE00E943A0161E08BE00E943A0161E073
:100C70008CE00E940C0161E08DE00E940C0161E0BB
:100C80008EE00E940C0161E08FE00E940C0161E0A7
:100C900080E10E940C0161E081E10E940C0161E0B1
:100CA00082E10E940C0161E083E10E940C0160E09E
:100CB00084E00E940C0160E085E00E940C0160E08D
:100CC00086E00E940C0160E087E00E940C0160E079
:100CD00088E00E940C0160E089E00E940C0160E065
:100CE0008AE00E940C0160E08BE00E940C0162E04F
:100CF00082E00E943A0162E083E00E943A018DEBBB
:100D000091E09093010180930001809169008360DC
:100D100080936900E89A81E991E0909303018093C0
:100D20000201809169008C6080936900E99A62E019
:100D300081E00E943A0162E080E00E943A01E7E22D
:100D4000F1E087EA91E0118210821382128215820B
:100D500014821782168211861086138612861586D3
:100D600014861786168670968E179F0761F70E9465
:100D70008C008BE191E00E94050581E291E00E94E8
:100D800005050DE210E0F0E0EF2EF0E0FF2EC1E0EF
:100D9000D0E08091060190910701892B09F46FC082
:100DA000D0934C01C0934B01D0935C01C0935B0185
:100DB000D0935E01C0935D01D0936001C0935F0149
:100DC000D0936201C0936101D0936401C093630129
:100DD000D0935001C0934F01D0935401C09353015D
:100DE000E4E6CE2ED12C0E94E70181E0C81AD1089A
:100DF000D1F71092620110926101D0935201C09319
:100E0000510174E6C72ED12C0E94E70181E0C81A77
:100E1000D108D1F710925C0110925B0110925E0133
:100E200010925D011092600110925F0110926401B6
:100E300010926301D0934E01C0934D0164E6C62E1B
:100E4000D12C0E94E70181E0C81AD108D1F7109295
:100E50004C0110924B0110924E0110924D011092D4
:100E6000500110924F0110925201109251011092B4
:100E7000540110925301109207011092060181E073
:100E80000E94E30020910A0130910B01813091050D
:100E900009F08BC0232B59F590930B0180930A0125
:100EA000E0911D01F0911E011E161F0604F5209110
:100EB0001B0130911C01B3E0220F331FBA95E1F7FB
:100EC000DF011296A20FB31FAA0FBB1FA95DBE4F71
:100ED0001D921C923197F0931E01E0931D01E20FC9
:100EE000F31FEE0FFF1FE95DFE4F9183808380E0CB
:100EF0000E94E300209108013091090181309105A1
:100F000009F05CC0232B69F59093090180930801D7
:100F100040911D0150911E014530510514F520915D
:100F20001B0130911C0163E0220F331F6A95E1F72A
:100F3000F901E40FF51FEE0FFF1FE95DFE4F11826F
:100F40001082FA013396E20FF31FEE0FFF1FE95DE7
:100F5000FE4F918380834F5F5F4F50931E014093FC
:100F60001D01C0900401D0900501C601B8010E9486
:100F70001D08892B51F48091190190911A0182303A
:100F8000910579F11CF5019749F10E94E7018FEF76
:100F9000C81AD80AD0920501C0920401E114F104E4
:100FA00009F4F7CE0E940000F4CE2130310509F09B
:100FB0009ECF10920B0110920A0199CF213031057A
:100FC00081F61092090110920801CBCF8330910570
:100FD00059F00497D1F60E943104D7CF0E949A04A9
:100FE000D4CF0E94C103D1CF0E945303CECFCF9361
:100FF000DF93EBE1F1E0C4E0D0E0D183C083D383A1
:10100000C28315821482CF010E940505E1E2F1E05E
:10101000D183C083D383C28381E090E095838483AE
:10102000CF010E940505E5E1F1E0D183C083D383C0
:10103000C283DF91CF910C948C0097FB072E16F49E
:10104000009407D077FD09D00E94310807FC05D035
:101050003EF4909581959F4F0895709561957F4FCF
:101060000895AA1BBB1B51E107C0AA1FBB1FA617EF
:10107000B70710F0A61BB70B881F991F5A95A9F741
:1010800080959095BC01CD010895EE0FFF1F05904E
:0A109000F491E02D0994F894FFCFCD
:08109A0090019001010001002A
:00000001FF
